:100000000C9463000C948B000C948B000C94EA030A
:100010000C94EA030C94EA030C948B000C948B0070
:100020000C948B000C948B000C948B000C948B0024
:100030000C948B000C948B000C948B000C948B0014
:100040000C94A0030C948B000C94180E0C94F20DDD
:100050000C948B000C948B000C948B000C948B00F4
:100060000C9464040C948B00000000002400270012
:100070002A0000000008000201000003040700003D
:1000800000000000000000000000230026002900FE
:1000900000000000250028002B00040404040404D0
:1000A0000404020202020202030303030303010227
:1000B00004081020408001020408102001020408F6
:1000C00010202A14A01011241FBECFEFD8E0DEBFED
:1000D000CDBF12E0A0E0B1E0E4E8F0E302C005909B
:1000E0000D92A63FB107D9F725E0A6EFB2E001C017
:1000F0001D92A03FB207E1F710E0C2E6D0E004C0D5
:100100002197FE010E942A18C136D107C9F70E9423
:10011000BC100C9435180C940000FC01918D828D5C
:10012000981761F0828DDF01A80FB11D5D968C914B
:10013000928D9F5F9F73928F90E008958FEF9FEF56
:100140000895FC01918D828D981731F0828DE80F12
:10015000F11D858D90E008958FEF9FEF0895FC01CC
:10016000918D228D892F90E0805C9F4F821B910999
:100170008F739927089580E090E0892B29F00E94E1
:10018000790D81110C9400000895833081F028F4DA
:10019000813099F08230A1F008958730A9F088303D
:1001A000B9F08430D1F4809180008F7D03C08091BC
:1001B00080008F7780938000089584B58F7702C088
:1001C00084B58F7D84BD08958091B0008F7703C082
:1001D0008091B0008F7D8093B0000895CF93DF931E
:1001E000282F30E0F901EE58FF4F8491F901E255D4
:1001F000FF4FD491F901E656FF4FC491CC2391F003
:1002000081110E94C500EC2FF0E0EE0FFF1FEA57AE
:10021000FF4FA591B491EC91ED2381E090E021F4A2
:1002200080E002C080E090E0DF91CF9108953FB779
:10023000F8948091A6039091A703A091A803B09190
:10024000A90326B5A89B05C02F3F19F00196A11D53
:10025000B11D3FBFBA2FA92F982F8827820F911D5C
:10026000A11DB11DBC01CD0142E0660F771F881FA3
:10027000991F4A95D1F708952091050530910605FB
:100280002817390771F49091030580910405981798
:1002900041F0E0910305F0E0EF59FC4F808190E0E0
:1002A00008958FEF9FEF089508951F93CF93DF93E5
:1002B000DC015C968D919C915D97009739F421E06B
:1002C00030E013963C932E9312973BC05196ED91DC
:1002D000FC91529750962C915097322F30951FB722
:1002E0005E964C915E97742F727041FD6095F89404
:1002F0004081772311F0422B01C043234083EC015E
:100300002197F1F748E0508160FF02C0522B01C0F5
:1003100053235083EC012197F1F76695415099F7EB
:100320008081772319F08323808302C0282B2083C8
:100330001FBF5C968D919C915D970197F1F781E0CD
:1003400090E0DF91CF911F910895209105053091A4
:1003500006052817390771F48091040520910305DB
:1003600090E0805C9F4F821B910960E470E00E94E6
:100370009F17089580E090E0089520910505309141
:10038000060528173907B9F49091030580910405F3
:10039000981789F0E0910305F0E0EF59FC4F808158
:1003A0002091030530E02F5F3F4F2F7333272093B9
:1003B000030590E008958FEF9FEF089585ED8093FA
:1003C000BC008091BC0084FDFCCF10923B030895DB
:1003D00040911703262F30E0240F311D21323105C3
:1003E000DCF420913B032430C9F4FC0180E090E070
:1003F000861758F4309117032191DC01A950BD4FA5
:10040000A30FB11D2C930196F3CF80911703680FB2
:100410006093170380E0089581E0089582E00895D5
:100420008FEF9FEF08958FEF9FEF08958091F60271
:1004300090E09195819591090895CF93DF93CB0139
:10044000EA01642F0E94E801CE01DF91CF91089567
:10045000CF93DF931F92CDB7DEB7698361E0CE0102
:1004600001960E94E80181E090E00F90DF91CF912A
:100470000895089580E090E008950E943018FC01EE
:10048000848DDF01A80FB11DA35ABF4F2C91848D1D
:1004900090E001968F739927848FA689B7892C9352
:1004A000A089B1898C91837080648C93938D848DA5
:1004B000981306C00288F389E02D80818F7D8083A8
:1004C00008951F93CF93DF93282F30E0F901EE5862
:1004D000FF4F8491F901E255FF4FD491F901E6569F
:1004E000FF4FC491CC23C1F0162F81110E94C5008B
:1004F000EC2FF0E0EE0FFF1FE057FF4FA591B491F6
:100500009FB7F894111104C08C91D095D82302C0E4
:10051000EC91DE2BDC939FBFDF91CF911F9108956B
:10052000CF93DF9390E0FC01E255FF4F2491FC0153
:10053000E656FF4F8491882361F190E0880F991F60
:10054000FC01E859FF4FC591D491FC01E057FF4FE2
:10055000A591B491611109C09FB7F8948881209545
:1005600082238883EC912E230BC0623061F49FB705
:10057000F8948881322F309583238883EC912E2B39
:100580002C939FBF06C08FB7F894E8812E2B288349
:100590008FBFDF91CF910895CF92DF92EF92FF92BC
:1005A000CF93DF93EC0160E08A810E94610260E0FA
:1005B00088810E9490021F821E8261E08A810E94CF
:1005C00061020E9417016B017C0188810E94EE008C
:1005D000892B79F00E941701DC01CB018C199D0950
:1005E000AE09BF0985369105A105B10570F380E01C
:1005F00001C081E0DF91CF91FF90EF90DF90CF902D
:1006000008951F93CF93DF93EC01162F8E819F8166
:10061000019741F081E090E09F838E8361E08881C3
:100620000E949002612F8881DF91CF911F910C94DD
:100630006102CF92DF92EF92FF920F931F93CF93BD
:10064000DF93EC01F62E08E010E08BE8C82EDD24E5
:10065000D39460E08A810E946102EF2CEE1CEE24AC
:10066000EE1C6E2DCE010E94010361E08A810E9482
:100670006102C6010197F1F76E2DCE010E940103C0
:10068000FF0C0150110929F7DF91CF911F910F91B4
:10069000FF90EF90DF90CF9008950F931F93CF932B
:1006A000DF938C0160E00E940103CBE8D1E0CE0132
:1006B0000197F1F760E0F80182810E9461022197C1
:1006C000F1F7DF91CF911F910F9108958F929F9233
:1006D000AF92BF92CF92DF92EF92FF926B017C01BB
:1006E0000E9417014B015C01C114D104E104F10423
:1006F000F1F00E941701DC01CB0188199909AA09C0
:10070000BB09883E9340A105B10570F321E0C21AF0
:10071000D108E108F10888EE880E83E0981EA11C3C
:10072000B11CC114D104E104F10419F7DDCFFF902D
:10073000EF90DF90CF90BF90AF909F908F900895F3
:100740001F920F920FB60F9211242F933F938F9306
:100750009F93AF93BF938091A2039091A303A09125
:10076000A403B091A5033091A10323E0230F2D37FB
:1007700020F40196A11DB11D05C026E8230F0296A5
:10078000A11DB11D2093A1038093A2039093A30305
:10079000A093A403B093A5038091A6039091A7030F
:1007A000A091A803B091A9030196A11DB11D80934A
:1007B000A6039093A703A093A803B093A903BF91A6
:1007C000AF919F918F913F912F910F900FBE0F90FE
:1007D0001F9018951F920F920FB60F9211242F930E
:1007E0003F934F935F936F937F938F939F93AF93B9
:1007F000BF93EF93FF93E0910505F09106053097C5
:1008000009F451C0968DA685B785858591FF04C0F2
:100810009C91892329F447C09C91892309F043C006
:10082000A389B4899C918589809589238C93868935
:1008300097890197F1F7608D718DA685B7855585EC
:1008400038E020E0CB010197F1F7822F90E09595F9
:100850008795282F4C91452309F02068315091F756
:10086000868D81FD20958091040590E001968F731F
:10087000992730910305381749F0A0910405B0E09D
:10088000AF59BC4F2C938093040503C0868D8160C3
:10089000868F828D938D0197F1F7A389B4899C91FE
:1008A0008589892B8C93FF91EF91BF91AF919F9197
:1008B0008F917F916F915F914F913F912F910F9009
:1008C0000FBE0F901F9018951F920F920FB60F92A8
:1008D00011242F933F934F935F936F937F938F9345
:1008E0009F93AF93BF93EF93FF938091B900887F5D
:1008F000803609F49CC068F5883209F45BC090F436
:10090000803109F454C038F4882309F4F2C08830E7
:1009100009F44DC0F2C0883109F44CC0803209F4AA
:100920005DC0EBC0803409F468C048F4803309F43A
:1009300055C0883309F0E1C080933A03D4C08035B4
:1009400009F44FC0883509F45DC0883409F0D5C07A
:10095000D2C0883909F4C3C0A8F4883709F467C045
:1009600038F4883609F463C0803709F460C0C5C024
:10097000883809F4B4C0803909F45FC0803809F0C0
:10098000BCC05BC0803B09F484C038F4803A09F4F1
:1009900066C0883A09F47DC0B0C0803C09F4A3C0A9
:1009A000883C09F4A0C0883B09F486C0A6C08091A9
:1009B000600310C090915F0380915E03981770F5FB
:1009C000E0915F0381E08E0F80935F03F0E0E25CD3
:1009D000FC4F80818093BB0085EC82C080933A03FA
:1009E0008AC0E0915F0381E08E0F80935F03809166
:1009F000BB00F0E0E25CFC4F808390915F0380914C
:100A00005E036AC0E0915F0381E08E0F80935F0315
:100A10008091BB00F0E0E25CFC4F808380913D035D
:100A2000811169C081E080933C0384EA5DC083E06A
:100A300080933B0310923903CFCF809139038032EA
:100A400008F04DC0E091390381E08E0F80933903A7
:100A50008091BB00F0E0E75EFC4F8083BDCF85EC6A
:100A60008093BC0010923B0380913903803230F4B4
:100A7000E0913903F0E0E75EFC4F108260913903AA
:100A800070E089E193E0E0E0F0E00995109239032D
:100A900034C084E080933B03109218031092170334
:100AA000E0E0F0E0099580911703811105C081E035
:100AB000809317031092F702E091180381E08E0FE4
:100AC00080931803F0E0E950FD4F80818093BB00D4
:100AD0009091180380911703981708F47DCF85E84B
:100AE0008093BC000AC085EC8093BC0010923B034D
:100AF00004C010923A030E94DE01FF91EF91BF9172
:100B0000AF919F918F917F916F915F914F913F91A5
:100B10002F910F900FBE0F901F9018950F931F935A
:100B2000CF93DF938C01C62FD42F0E944D034D2FFE
:100B300050E0F801558344836C2F660F6F5FC80146
:100B40000E941903C801DF91CF911F910F910C945E
:100B5000CC02CF93DF93EC010E941903CE01DF9109
:100B6000CF910C94CC021F93CF93DF93EC01162FFF
:100B70000E944D03612F660FCE010E941903CE0122
:100B8000DF91CF911F910C94CC020F931F93CF93C1
:100B9000DF938C0160E0FC0182810E946102CBE85E
:100BA000D1E0CE010197F1F760E0C8010E94010396
:100BB000CE010197F1F761E0F80182810E946102A4
:100BC000CE010197F1F761E0C8010E94010321976E
:100BD000F1F7DF91CF911F910F910895AF92BF92DE
:100BE000CF92DF92FF920F931F93CF93DF93FC017D
:100BF00024813581232B09F464C0EC0160E08081FD
:100C00000E9490021F821E8288E0C82ED12CF12CF7
:100C10009BE8A92EBB24B39460E08A810E94610204
:100C200061E08A810E9461020BE811E0C501019731
:100C3000F1F788810E94EE00FF0CF80EF1E0CF1A68
:100C4000D10851F78C819D8101979D838C8360E051
:100C500018161906CCF48A810E946102C801019716
:100C6000F1F760E0CE010E940103C8010197F1F79E
:100C700061E08A810E946102C8010197F1F760E09A
:100C80008A810E9461021BC08A810E946102C801A0
:100C90000197F1F761E0CE010E940103C8010197BD
:100CA000F1F761E08A810E946102C8010197F1F7C2
:100CB00060E08A810E946102CE010E94C5058F2DED
:100CC00001C080E0DF91CF911F910F91FF90DF90E5
:100CD000CF90BF90AF900895CF93DF93EC01842F16
:100CE000798368834A835B8361E00E94900261E0BC
:100CF00088810E94900281E090E09F838E8361E072
:100D00008A810E94610261E08881DF91CF910C9419
:100D10006102CF93C82F67E78AEB93E00E94B30587
:100D20006C2F8AEB93E00E94A9058AEB93E00E9466
:100D3000C50542E067E78AEB93E00E948E0580914B
:100D4000BE038230F0F38AEB93E00E94EE05C82FD9
:100D50008AEB93E00E94EE052C2F30E0322F222701
:100D6000A901482BCA01CF910895382FFC018FEFBC
:100D70009FEF2E2F231B261788F42191822728E02E
:100D8000AC014170552796958795452B21F041E0A0
:100D9000842740EA9427215099F7EBCF9827892799
:100DA0009827089581E00895CF93DF93EC016AE4DA
:100DB00084EA95E00E94B30584EA95E00E94C505A7
:100DC000E881F9810190F081E02D61E0CE01099583
:100DD00081E0DF91CF91089540E0662351F061E01A
:100DE00081E00E94B90E40E060E482E00E94B90E0A
:100DF00040E860E882E00C94B90EAF92BF92DF92B7
:100E0000EF92FF920F931F93CF93DF9300D000D008
:100E1000CDB7DEB783E0D82EE12CF12C00E010E056
:100E20005E0125E0A20EB11CBE016F5F7F4F80E026
:100E30000E946F0F892B09F048C0898183FF45C04C
:100E40006091CE058BEF94E00E94B30562E08BEFDA
:100E500094E00E94A9058BEF94E00E94C50544E050
:100E60006091CE058BEF94E00E948E058E010F5F9E
:100E70001F4F8091FF04882369F00A151B0509F0B4
:100E800063C08091FF04882329F08BEF94E00E94D7
:100E9000EE05F7CF69817A81162F072F1093DA05B7
:100EA0000093D9058B819C81982789279827909357
:100EB000D8058093D70565E070E080E090E00E945F
:100EC0006603E090D705F090D805C80101978E3FE2
:100ED0009F4F28F4C70101978E3F9F4F18F0DA9477
:100EE000D110A2CF1093E9030093EA03F092EB0331
:100EF000E092EC038CE591E00E946D0FB80180E078
:100F000090E04AE00E942C0F83E691E00E94AB0E35
:100F100087E691E00E946D0FB70180E090E04AE023
:100F20000E942C0F83E691E00E94AB0E0F900F9071
:100F30000F900F90DF91CF911F910F91FF90EF9045
:100F4000DF90BF90AF9008958BEF94E00E94EE0584
:100F5000F80181938F018DCF2F923F924F925F9234
:100F60006F927F928F929F92AF92BF92CF92DF92B9
:100F7000EF92FF920F931F93CF93DF9300D000D097
:100F80001F92CDB7DEB723E02D83F8E02F2E312C52
:100F900067E78AEB93E00E94B30564EF8AEB93E086
:100FA0000E94A9056EE28AEB93E00E94A9058AEBF4
:100FB00093E00E94C50565E070E080E090E00E944B
:100FC000660386EF0E948906AC0160E070E08091C4
:100FD000CA039091CB039A01AB01281B390B41093D
:100FE0005109A091CC03B091CD030E9403184B018D
:100FF0005C016FE0B594A794979487946A95D1F7B4
:101000006091C4037091C503CB01770FAA0BBB0B92
:10101000BC01CD01EBE0660F771F881F991FEA9591
:10102000D1F72091C2033091C3038901330F220B02
:10103000330BA9019801280D391D4A1D5B1D0E9423
:10104000D517820E931EA41EB51E8092AA039092FD
:10105000AB03A092AC03B092AD0367E78AEB93E0D9
:101060000E94B30564EF8AEB93E00E94A9056091AA
:10107000D6036295660F660F607C6C5C8AEB93E02A
:101080000E94A9058AEB93E00E94C50563E070E029
:101090000090D60302C0660F771F0A94E2F76E5FD6
:1010A0007F4F072E000C880B990B0E94660367E7A1
:1010B0008AEB93E00E94B30566EF8AEB93E00E940F
:1010C000A9058AEB93E00E94C50543E067E78AEB38
:1010D00093E00E948E058091BE038330F0F38AEB8B
:1010E00093E00E94EE05F82E8AEB93E00E94EE0555
:1010F000C82E8AEB93E00E94EE05F82FE091D6030C
:1011000030EA831A3FE0930AA108B108A5019401CF
:10111000C501B4010E948F1769837A838B839C83F6
:101120000091D4031091D503A091C803B091C903D5
:101130009B01AC018CE055954795379527958A958D
:10114000D1F70E940E182C01772457FC7094672C5D
:10115000A091D003B091D103A50194010E940E1873
:10116000DC01CB013DE0B595A795979587953A951C
:10117000D1F7840D951DA61DB71D0296A11DB11DA9
:1011800042E0B595A795979587954A95D1F79C012B
:10119000AD0130584F4F5F4FA091CE03B091CF03B8
:1011A0000E9403182B013C015FE0769467945794EA
:1011B00047945A95D1F78C2D90E0A0E0B0E0BA2F7B
:1011C000A92F982F88279C01AD014F2969017A0129
:1011D000CF2AC1018E1B910904C0F694E794D794DD
:1011E000C7948A95D2F7A091C603B091C70329810D
:1011F0003A814B815C810E940E189B01AC0177E122
:1012000055954795379527957A95D1F729833A8350
:101210004B835C83A091D203B091D303A5019401C9
:101220000E940E18DC01CB01FBE0B595A7959795C0
:101230008795FA95D1F729813A814B815C81820F9C
:10124000931FA41FB51F012E000C220B330B42E08D
:10125000000F111F221F331F4A95D1F7080F191FC6
:101260002A1F3B1F0E2E04C0000F111F221F331F09
:101270000A94D2F70E5F1F4F2F4F3F4F52E0359524
:101280002795179507955A95D1F7D701C601801B69
:10129000910BA20BB30B9C01AD0160E573EC80E0F8
:1012A00090E004C09595879577956795EA95D2F774
:1012B0000E948F1797FD0BC0660F771F881F991F1D
:1012C000A30192010E94B31749015A010AC0A30168
:1012D00092010E94B31749015A01880C991CAA1C5B
:1012E000BB1C9927B7FC9A958B2D7A2D692D9B01F4
:1012F000AC010E948F179B01AC01AEEDBBE00E94D8
:1013000003186B017C01A3E4B3EEA50194010E94D4
:101310001118BB2797FDB095AB2F6701FF24D7FCB1
:10132000F094EF2C8C0D9D1DAE1DBF1D8153914F70
:10133000AF4FBF4F44E0B595A795979587954A95D0
:10134000D1F7BC01CD01680D791D8A1D9B1D0E943E
:1013500068166093AE037093AF038093B0039093CD
:10136000B1030E9437166B017C01672B682B692B38
:1013700049F49D8191509D8391110ACECC24CA9449
:10138000DC2C7601F092F303E092F403D092F503A3
:10139000C092F6038FE691E00E946D0FAAE0B0E0E4
:1013A000A70196010E9403184AE00E942C0F8BE7C8
:1013B00091E00F900F900F900F900F90DF91CF91D1
:1013C0001F910F91FF90EF90DF90CF90BF90AF9063
:1013D0009F908F907F906F905F904F903F902F9055
:1013E0000C94AB0E4F925F926F927F928F929F926E
:1013F000AF92BF92CF92DF92EF92FF920F931F9323
:10140000CF93C3E060E482EB93E00E94B30563EF07
:1014100082EB93E00E94A90582EB93E00E94C50550
:1014200064E670E080E090E00E94660343E060E4E0
:1014300082EB93E00E948E0505E610E08091B603F2
:10144000833088F461E070E080E090E00E94660301
:101450000150110999F7C12C10E8D12E19E7E12E9E
:1014600014E4F12E5DC082EB93E00E94EE05082F9C
:1014700082EB93E00E94EE05182F82EB93E00E942E
:10148000EE05212F30E0302BA90160E070E0762FCF
:10149000652F542F4427482B87E190E0C12CE0E8CA
:1014A000DE2EE8E9EE2EF12C4A015B01082E04C085
:1014B000B694A794979487940A94D2F780FE04C0B8
:1014C0004C255D256E257F25F694E794D794C79427
:1014D00001978730910541F741111BC0B9016C7F1D
:1014E00080E090E00E94661620E030E040E857E39C
:1014F0000E941D1722E538EB4FE253E40E941D17AE
:1015000026E636E64BE352E40E944C156B017C0163
:1015100007C0C12CB0ECDB2EB9E7EB2EB4E4FB2EF8
:1015200065E070E080E090E00E94660360E482EB9A
:1015300093E00E94B30565EF82EB93E00E94A9055A
:1015400082EB93E00E94C50567E370E080E090E0E5
:101550000E94660343E060E482EB93E00E948E0504
:1015600005E610E08091B603833088F461E070E016
:1015700080E090E00E9466030150110999F7812CE8
:1015800090E8992E99E7A92E94E4B92E5DC082EBDC
:1015900093E00E94EE05182F82EB93E00E94EE0587
:1015A000B82E82EB93E00E94EE052B2D30E0312B1C
:1015B000A90160E070E0762F652F542F4427482B57
:1015C00087E190E0812CA0E89A2EA8E9AA2EB12C00
:1015D0002A013B01082E04C07694679457944794DF
:1015E0000A94D2F740FE04C0482559256A257B2578
:1015F000B694A7949794879401978730910541F703
:1016000041111BC0B9016C7F80E090E00E9466161A
:1016100020E030E040E857E30E941D1720E030E072
:101620004AEF52E40E941D1720E030E040EC50E405
:101630000E944C154B015C0107C0812C80EC982E58
:1016400089E7A82E84E4B82EC701B6010E9430169F
:10165000672B09F463C0C501B4010E943016672BE3
:1016600009F45CC020E030E849E754E4C701B60162
:101670000E94181787FF52C020E030E849E754E481
:10168000C501B4010E94181787FF48C08EE791E09A
:101690000E946D0F42E0C701B6010E94CE0F84E8A0
:1016A00091E00E94990E87E891E00E946D0F42E060
:1016B000C501B4010E94CE0F84E891E00E94990E0A
:1016C00020E030E040E251E4C701B6010E941D175E
:1016D0000E943016C62F172F20E030E040E251E480
:1016E000C501B4010E941D170E9430161093E1033A
:1016F000C093E2037093DF036093E003CF911F91E7
:101700000F91FF90EF90DF90CF90BF90AF909F90A0
:101710008F907F906F905F904F900895C15009F027
:1017200071CEB4CF2F923F924F925F926F927F9281
:101730008F929F92AF92BF92CF92DF92EF92FF92E1
:101740000F931F93CF93DF9300D0CDB7DEB783E025
:10175000B82EA12C612C712C88248394912C28EE16
:10176000222E23E0322E412C512C41E069E387EDFB
:1017700093E00E948E0565E070E080E090E00E94BA
:1017800066038091DB03882329F087ED93E00E94B4
:10179000EE05782E41E068E387ED93E00E948E0528
:1017A00065E070E080E090E00E9466038091DB03DA
:1017B000882329F087ED93E00E94EE05682E062D20
:1017C00010E017296AE484EA95E00E94B30563E01B
:1017D00084EA95E00E94A90584EA95E00E94C50587
:1017E00062E0CE0101960E94740E39818A81282F11
:1017F0002F7040E1349FC0011124822B32953F703D
:10180000A40102C0440F551F3A95E2F7282F30E09B
:10181000ADE2B0E00E94F417DA019B01AC010E9436
:101820000E18609300017093010180930201909360
:101830000301A20191010E94B31769017A01C80155
:1018400001978E3F9F4F10F0AA24A39421153105D4
:1018500041055105F1F0203D32424C43510588F4D9
:10186000A11017C0B80180E090E00E9466162CEE2F
:1018700031E548EB5BE30E941D170E9437168B0190
:101880000DC0CC24CA94DD24DA94EE24EA94FF241B
:10189000FA94BA94AA24A394B11067CF8DE891E08A
:1018A0000E946D0FB80180E090E04AE00E942C0F8A
:1018B00084E891E00E94990E83E991E00E946D0F07
:1018C0004AE0B601C7010E942C0F89E991E00E940D
:1018D000AB0E1093F9030093FA03F092ED03E0923C
:1018E000EE03D092EF03C092F0030F900F90DF91C0
:1018F000CF911F910F91FF90EF90DF90CF90BF900D
:10190000AF909F908F907F906F905F904F903F909F
:101910002F900895CF92DF92EF92FF9281E090E0B6
:101920000E943615883058F4E82FF0E0EE0FFF1FC4
:10193000EC5FFE4FC080D180E12CF12C06C060E846
:10194000C62E65E2D62EE12CF12C8EE991E00E94A4
:101950006D0F4AE0C701B6010E942C0F84E891E0A8
:101960000E94990E1092CA051092C9051092C805DE
:101970001092C7051092C6051092C50560E079E087
:101980008DE390E0A70196010E94D517F90124305C
:10199000310518F0C901039702C081E090E09093EF
:1019A000CC058093CB059091BB05963108F076C0AD
:1019B000B901769567956431710518F06351710925
:1019C00002C061E070E07093C6056093C50536976C
:1019D00020F0B9016550710902C061E070E07093B8
:1019E000C8056093C705B901660F771F260F371F1B
:1019F00036952795369527952D30310518F02C50C2
:101A0000310902C021E030E03093CA052093C905B6
:101A100040916800983058F031E09E3008F430E092
:101A200021E0822F01C0880F3A95EAF701C084E0D7
:101A3000842B80936800983038F09E3040F09631C7
:101A400048F020E030E008C02DE630E005C02BE68D
:101A500030E002C02CE630E03093C3052093C2058D
:101A6000983030F481E001C0880F9A95EAF70EC0F3
:101A7000292F30E09E3018F42850310902C02E5032
:101A8000310981E001C0880F2A95EAF78093C405E7
:101A90008091CB059091CC050197F1F70E94F90E4A
:101AA000FF90EF90DF90CF900C94F90E64E670E019
:101AB00080E090E00E94660360E084E00C946102A4
:101AC00061E084E00E94610269E170E080E090E002
:101AD0000C946603FC01538D448D252F30E0842F38
:101AE00090E0821B930B541710F0CF960895019746
:101AF000089587E095E00E94AF0021E0892B09F46A
:101B000020E0822F0895EF92FF920F931F93CF93BF
:101B1000DF93EC0181E0888F9B8D8C8D981305C03D
:101B2000E889F989808185FD26C0F62E0B8D10E0AD
:101B30000F5F1F4F0F731127E02E8C8DE8120CC022
:101B40000FB607FCFACFE889F989808185FFF5CFC8
:101B5000CE010E943F02F1CF8B8DFE01E80FF11DF7
:101B6000E35AFF4FF0829FB7F8940B8FEA89FB8905
:101B7000808180620AC09FB7F894EE89FF896083F4
:101B8000E889F98980818370806480839FBF81E0C8
:101B900090E0DF91CF911F910F91FF90EF9008950A
:101BA000CF93DF93EC01888D8823C9F0EA89FB8904
:101BB000808185FD05C0A889B9898C9186FD0FC0FB
:101BC0000FB607FCF5CF808185FFF2CFA889B989D0
:101BD0008C9185FFEDCFCE010E943F02E7CFDF91D0
:101BE000CF9108951F920F920FB60F9211242F9349
:101BF0003F934F935F936F937F938F939F93AF9395
:101C0000BF93EF93FF9387E095E00E943F02FF911F
:101C1000EF91BF91AF919F918F917F916F915F9164
:101C20004F913F912F910F900FBE0F901F901895DD
:101C30001F920F920FB60F9211242F938F939F93A1
:101C4000EF93FF93E0911705F09118058081E091E3
:101C50001D05F0911E0582FD12C090818091200526
:101C60008F5F8F7320912105821751F0E09120053D
:101C7000F0E0E95FFA4F958F8093200501C08081E5
:101C8000FF91EF919F918F912F910F900FBE0F9029
:101C90001F901895CF92DF92EF92FF920F931F93B0
:101CA000CF93DF936C017A018B01C0E0D0E0CE15B9
:101CB000DF0581F0D8016D918D01D601ED91FC9188
:101CC0000190F081E02DC6010995892B11F0219634
:101CD000EECF7E01C701DF91CF911F910F91FF9051
:101CE000EF90DF90CF900895EF92FF920F931F93A4
:101CF000CF937C01462F6AE484EA95E00E948E052A
:101D0000C0E08091A805882359F087010C0F111DB0
:101D100084EA95E00E94EE05F8018083CF5FF1CF61
:101D200084EA95E0CF911F910F91FF90EF900C9472
:101D3000C505009769F0FC0101900020E9F7319793
:101D4000AF01481B590BBC0187E095E00C944A0E8B
:101D500080E090E00895CF93DF930E94990EEC010C
:101D600084E891E00E94990E8C0F9D1FDF91CF9126
:101D70000895FF920F931F93CF93DF931F92CDB7D8
:101D8000DEB7F82E162F042F6AE484EA95E00E944D
:101D9000B3056F2D84EA95E00E94A90584EA95E0D9
:101DA0000E94C50561E0CE0101960E94740E912F3C
:101DB0009095898189230123182F102B19836AE4B8
:101DC00084EA95E00E94B3056F2D84EA95E00E94B5
:101DD000A905612F84EA95E00E94A90584EA95E0AF
:101DE0000E94C5050F90DF91CF911F910F91FF9039
:101DF00008958091C9059091CA05892B59F1E09108
:101E00000505F091060585E0EF3AF80719F13097DE
:101E100039F0A389B4899C918589809589238C9315
:101E20008091CD058E7F8093CD0510920405109290
:101E300003058FEA95E09093060580930505E091F0
:101E4000C205F091C30590818091C405892B8083E0
:101E500081E0089580E008958F929F92AF92BF92A3
:101E60000F931F93CF93DF93CDB7DEB7A1970FB634
:101E7000F894DEBF0FBECDBF19A2423008F44AE08D
:101E80008E010F5D1F4F842E912CA12CB12CA5012A
:101E900094010E94B317E62FB901CA01015011093C
:101EA000EA3014F4E05D01C0E95CD801EC93232B27
:101EB000242B252B61F7C8010E94990EA1960FB61D
:101EC000F894DEBF0FBECDBFDF91CF911F910F9170
:101ED000BF90AF909F908F9008950C94990E0F93A0
:101EE0001F93CF93DF93082FEB016091CE058BEF0B
:101EF00094E00E94B305602F8BEF94E00E94A90547
:101F00008BEF94E00E94C50541E06091CE058BEF18
:101F100094E00E948E058091FF04882331F08BEFBE
:101F200094E00E94EE05182FF6CF188380E090E031
:101F3000DF91CF911F910F910895EF92FF921F9320
:101F4000CF93DF931F92CDB7DEB7BE016F5F7F4F98
:101F500081E00E946F0F7C01892BC1F419811F78E9
:101F6000106119836091CE058BEF94E00E94B30558
:101F700061E08BEF94E00E94A905612F8BEF94E064
:101F80000E94A9058BEF94E00E94C505C7010F9040
:101F9000DF91CF911F91FF90EF9008958F929F92C4
:101FA000AF92BF92CF92DF92EF92FF920F931F9367
:101FB000CF93DF936B017C01142F9B01AC010E9436
:101FC0008A17882319F089EE92E027C0460157014D
:101FD000E894B7F82FEF3FEF4FE75FE7C501B40193
:101FE0000E948A1781110DC02FEF3FEF4FE75FE787
:101FF000C501B4010E94B91518161CF48DEE92E0CB
:102000000CC02FEF3FEF4FE75FE4C701B6010E941E
:102010001817181684F481EF92E0DF91CF911F9189
:102020000F91FF90EF90DF90CF90BF90AF909F9077
:102030008F900C94990E2FEF3FEF4FE75FECC701A5
:10204000B6010E94B91587FDE6CF20E030E0A90176
:10205000C701B6010E94B91587FF0BC06DE287E08A
:1020600095E00E94830DEC01F7FAF094F7F8F094F4
:1020700002C0C0E0D0E000E060E070E080E09FE3FC
:10208000101741F020E030E040E251E40E94BE151C
:102090000F5FF6CFA70196010E944D156B017C01E1
:1020A0000E9437164B015C014AE00E942C0FC80FBA
:1020B000D91F1123B9F1C501B4010E9466169B0115
:1020C000AC01C701B6010E944C156B017C016EE2A8
:1020D00087E095E00E94830DC80FD91F20E030E013
:1020E00040E251E4C701B6010E941D174B015C019B
:1020F0000E9437166B01E12CF12C4AE0C701B601B2
:102100000E942C0FC80FD91FC701B6010E94661686
:102110009B01AC01C501B4010E944C156B017C010F
:102120001150E1F6CE01DF91CF911F910F91FF90F9
:10213000EF90DF90CF90BF90AF909F908F900895D9
:1021400080E491E09093B0058093AF058091050500
:10215000909106058F5A954071F4E091C205F09177
:10216000C30590818091C405809589238083109256
:102170000605109205050895CF93DF93CDB7DEB71E
:10218000C250D1400FB6F894DEBF0FBECDBF7894D9
:1021900084B5826084BD84B5816084BD85B582606C
:1021A00085BD85B5816085BD80916E00816080931D
:1021B0006E00109281008091810082608093810086
:1021C0008091810081608093810080918000816096
:1021D000809380008091B10084608093B1008091F1
:1021E000B00081608093B00080917A008460809319
:1021F0007A0080917A00826080937A0080917A00E0
:10220000816080937A0080917A00806880937A0060
:102210001092C100E0911705F091180582E08083CB
:10222000E0911305F09114051082E0911505F091ED
:1022300016058FEC808310921F05E0911B05F0912D
:102240001C0586E08083E0911905F0911A058081D4
:1022500080618083E0911905F0911A058081886082
:102260008083E0911905F0911A0580818068808350
:10227000E0911905F0911A0580818F7D80830E947D
:102280008A0C61E084E00E9490020E94560D4CE0AE
:1022900050E06BE070E087ED93E00E946C0668E32D
:1022A00087ED93E00E94B30566E087ED93E00E941E
:1022B000A90587ED93E00E94C50564EF71E080E019
:1022C00090E00E9466038DEA95E00E94D406882380
:1022D00019F08BEB91E002C081ED91E00E94AB0E12
:1022E00046E050E065E070E082EB93E00E946C060F
:1022F00047E050E068E070E08AEB93E00E946C06F3
:1023000082E08093D6038AEA0E9489069093D503DF
:102310008093D4038CEA0E9489069093D303809320
:10232000D2038EEA0E9489069093D1038093D00352
:1023300080EB0E9489069093CF038093CE0382EBBB
:102340000E9489069093CD038093CC0384EB0E9476
:1023500089069093CB038093CA0386EB0E9489067B
:102360009093C9038093C80388EB0E9489069093D9
:10237000C7038093C6038AEB0E9489068CEB0E94F8
:1023800089069093C5038093C4038EEB0E9489064F
:102390009093C3038093C20380911401909115011F
:1023A000A0911601B091170189839A83AB83BC83F6
:1023B00049E050E06AE070E08BEF94E00E946C0628
:1023C000CF5FDE4F1882C150D14080E197E2CF5FEE
:1023D000DE4F2881C150D1402F5FCF5FDE4F288371
:1023E000C150D140019799F78091FF04882329F0CB
:1023F0008BEF94E00E94EE05F7CFC050DF4F1882BC
:10240000C050D140BE01739580E20E946F0F0097CB
:1024100061F431E020E0C050DF4F8881C050D140EE
:10242000813809F430E0832F922F892B09F05FC0A7
:102430006091CE058BEF94E00E94B3056FEF8BEFB8
:1024400094E00E94A9058E010F5F1F4F7E0185E079
:10245000E80EF11CD8016D918D018BEF94E00E9484
:10246000A9050E151F05B1F78BEF94E00E94C50575
:10247000CE5FDE4F1882C250D14080E89EE3CE5F2F
:10248000DE4F2881C250D1402F5FCE5FDE4F2883C0
:10249000C250D140019799F7BE01739580E00E9428
:1024A0006F0FC050DF4F8881C050D14080FD1FC0EA
:1024B000BE01739580E00E946F0F892BC1F4C0505C
:1024C000DF4F8881C050D14084FF11C06091CE059C
:1024D0008BEF94E00E94B30564EF8BEF94E00E94D1
:1024E000A9058BEF94E00E94C5050E949D0F0E94F4
:1024F0009D0F80E090E00E943615853019F08830FD
:1025000009F0A2C186EE91E00E94AB0E60EC71EE84
:1025100084EE90E020E030E0A9010E94D517290167
:10252000220F331F220F331F3901B5E06B1A7108D8
:102530008E010F5F1F4F58E0352E5E01E7E0AE0EB3
:10254000B11C62E0862E64E0962E212C8FEA95E085
:102550000E94A501181619060CF06EC0FFEF2F1689
:1025600071F0FF24F394F20C8FEA95E00E94BD0114
:10257000E22DF0E0E450FC4F80832F2C04C08FEA62
:1025800095E00E94BD0182E04816510418F0C30195
:102590000197F1F78FEA95E00E94A501892BB1F62A
:1025A00066E08CEF93E00E94B5066C01E0900204B7
:1025B000F0900304FE24EF24FE2480E090E00E94CB
:1025C00036159091FC03981322C0CE14DF0421F439
:1025D000A1E0A093FB03BACF86E092E00E94AB0E8D
:1025E000B60180E090E040E10E942C0F84E891E089
:1025F0000E94990EB70180E090E040E10E942C0F0C
:1026000084E891E00E94990E1092FB039FCF85E32E
:1026100092E00E94AB0E86E592E00E946D0F609101
:10262000FC0370E080E090E04AE00E942C0F84E818
:1026300091E00E94990E8ACF8091FB03882309F4D0
:10264000DCC08091FD03833021F0863009F451C055
:10265000CDC0F8018FEF11928A95E9F780910104BE
:10266000882309F4C1C00E94920B0E94F2090E94C3
:10267000AC070E94FD0690910104990F8091FF0321
:10268000880F292F280F3091FC0339833091FD03E7
:102690003A839B8393E0D92ECC24C394CD0CED2CAC
:1026A000F12C821760F4D801AE0DBF1DE82FF0E0C9
:1026B000E152FC4F90819C938F5FDC2CEDCF6D2D10
:1026C000C8010E94B506F801EE0DFF1D9083F801C8
:1026D000EC0DF11D80830E94600DD394D3944D2D99
:1026E00050E0B8018FEA95E00E944A0E0E94560D14
:1026F0007BC08091FE03813009F078C08091FF0398
:10270000813021F0823009F440C070C0D801E32D3F
:102710001D92EA95E9F780E090E00E943615F0906E
:1027200001048983ADEFB3E0FE0132968D91819370
:10273000AE16BF06D9F766E0C8010E94B5069F83B2
:1027400088870E94600D48E050E0B8018FEA95E06C
:102750000E944A0E0E94560D6F2D80E090E00E946C
:102760003E158EE692E00E94AB0E89E892E00E9450
:102770006D0F6F2D70E080E090E040E10E942C0F23
:1027800084E891E00E94990E2FC0D801E32D1D929C
:10279000EA95E9F780910104883010F5ECEFF3E059
:1027A000D80181918D938E169F06D9F766E0C801F6
:1027B0000E94B5069F8388870E94600D48E050E024
:1027C000B8018FEA95E00E944A0E0E94560D609172
:1027D000010481E090E00E943E150E948A0C04C032
:1027E0008CE992E00E94AB0E1092FB03ECEFF3E059
:1027F000DF018FEF1D928A95E9F787E095E00E944F
:10280000AF0018161906ECF487E095E00E948D00E1
:10281000F82E87E095E00E94AF00892B71F78F2D8D
:102820008F7D833549F40E94920B0E94F2090E9429
:10283000AC070E94FD06E1CF8BEC92E00E94AB0E4C
:10284000DCCF0E94BB0081CE65E080E090E00E947A
:102850003E1558CECF92DF92EF92FF9210920A056A
:102860001092090598EEC92E93E0D92EE12CF12C97
:10287000C0920B05D0920C05E0920D05F0920E056A
:102880008CE191E0909308058093070585EC90E03A
:10289000909314058093130584EC90E090931605B3
:1028A0008093150580EC90E09093180580931705B0
:1028B00081EC90E090931A058093190582EC90E0EA
:1028C00090931C0580931B0586EC90E090931E0569
:1028D00080931D051092200510922105109222056B
:1028E000109223051092E7051092E605C092E805C4
:1028F000D092E905E092EA05F092EB058EE291E0D4
:102900009093E5058093E4054CE050E06BE070E0C7
:1029100084EA95E00E946C0661E08BE00E9461020F
:1029200061E08CE00E9461028AE58093CE051092FE
:10293000DC051092DB051092DE051092DD0580E0CB
:1029400090E4ACE1B6E48093CF059093D005A093DA
:10295000D105B093D2051092D3051092D4051092F0
:10296000D5051092D6051092DF051092E005109261
:10297000E1051092E2051092D8051092D705109249
:10298000DA051092D9051092B2051092B105C092E5
:10299000B305D092B405E092B505F092B60580E497
:1029A00091E09093B0058093AF051092C605109208
:1029B000C5051092C8051092C7051092CA0510925D
:1029C000C9051092CC051092CB056091CD056E7FA4
:1029D0006D7F6093CD056695617081E0682783E027
:1029E0000E94610261E083E00E949002E1EBF0E06E
:1029F000E491E093BF05EDE9F0E0E491F0E0EE0F43
:102A0000FF1FE057FF4F859194919093C1058093EC
:102A1000C00560E082E00E9490028091CD0581FDBA
:102A200004C061E082E00E94610282E08093BB0505
:102A3000E0EBF0E0E491E093BC05ECE9F0E0E49138
:102A4000F0E0EE0FFF1FEA57FF4F859194919093AE
:102A5000BE058093BD0582E591E09093AE0580931D
:102A6000AD05FF90EF90DF90CF900895F999FECFDC
:102A700092BD81BDF89A992780B50895262FF999BE
:102A8000FECF1FBA92BD81BD20BD0FB6F894FA9A51
:102A9000F99A0FBE019608955058BB27AA270E94A5
:102AA00064150C94DE160E94D01638F00E94D716DA
:102AB00020F039F49F3F19F426F40C94CD160EF44F
:102AC000E095E7FB0C94C716E92F0E94EF1658F328
:102AD000BA17620773078407950720F079F4A6F503
:102AE0000C9411170EF4E0950B2EBA2FA02D0B01AC
:102AF000B90190010C01CA01A0011124FF27591B43
:102B000099F0593F50F4503E68F11A16F040A22F48
:102B1000232F342F4427585FF3CF469537952795B9
:102B2000A795F0405395C9F77EF41F16BA0B620BB8
:102B3000730B840BBAF09150A1F0FF0FBB1F661FFF
:102B4000771F881FC2F70EC0BA0F621F731F841F42
:102B500048F4879577956795B795F7959E3F08F068
:102B6000B0CF9395880F08F09927EE0F979587952A
:102B700008950E94A31608F481E008950E94D215DA
:102B80000C94DE160E94D71658F00E94D01640F022
:102B900029F45F3F29F00C94C71651110C941217B9
:102BA0000C94CD160E94EF1668F39923B1F35523C8
:102BB00091F3951B550BBB27AA2762177307840750
:102BC00038F09F5F5F4F220F331F441FAA1FA9F3E6
:102BD00035D00E2E3AF0E0E832D091505040E695D4
:102BE000001CCAF72BD0FE2F29D0660F771F881F35
:102BF000BB1F261737074807AB07B0E809F0BB0B28
:102C0000802DBF01FF2793585F4F3AF09E3F51053B
:102C100078F00C94C7160C9412175F3FE4F3983EBB
:102C2000D4F3869577956795B795F7959F5FC9F724
:102C3000880F911D9695879597F90895E1E0660FA5
:102C4000771F881FBB1F621773078407BA0720F01E
:102C5000621B730B840BBA0BEE1F88F7E095089587
:102C60000E9437166894B1110C94121708950E94AF
:102C7000F71688F09F5798F0B92F9927B751B0F001
:102C8000E1F0660F771F881F991F1AF0BA95C9F7F0
:102C900014C0B13091F00E941117B1E008950C9466
:102CA0001117672F782F8827B85F39F0B93FCCF319
:102CB000869577956795B395D9F73EF4909580956D
:102CC000709561957F4F8F4F9F4F0895E89409C08D
:102CD00097FB3EF490958095709561957F4F8F4F4F
:102CE0009F4F9923A9F0F92F96E9BB279395F69565
:102CF000879577956795B795F111F8CFFAF4BB0FE3
:102D000011F460FF1BC06F5F7F4F8F4F9F4F16C046
:102D1000882311F096E911C0772321F09EE8872FD0
:102D2000762F05C0662371F096E8862F70E060E08C
:102D30002AF09A95660F771F881FDAF7880F969505
:102D4000879597F90895990F0008550FAA0BE0E8A9
:102D5000FEEF16161706E807F907C0F0121613065D
:102D6000E407F50798F0621B730B840B950B39F49D
:102D70000A2661F0232B242B252B21F408950A2603
:102D800009F4A140A6958FEF811D811D089597F943
:102D90009F6780E870E060E008959FEF80EC089501
:102DA00000240A941616170618060906089500242A
:102DB0000A9412161306140605060895092E0394A4
:102DC000000C11F4882352F0BB0F40F4BF2B11F418
:102DD00060FF04C06F5F7F4F8F4F9F4F089557FD77
:102DE0009058440F551F59F05F3F71F04795880F79
:102DF00097FB991F61F09F3F79F087950895121610
:102E000013061406551FF2CF4695F1DF08C01616BB
:102E100017061806991FF1CF86957105610508946C
:102E20000895E894BB2766277727CB0197F9089583
:102E30000E94A31608F48FEF08950E9430170C9497
:102E4000DE160E94D01638F00E94D71620F0952387
:102E500011F00C94C7160C94CD1611240C94121773
:102E60000E94EF1670F3959FC1F3950F50E0551F28
:102E7000629FF001729FBB27F00DB11D639FAA27CF
:102E8000F00DB11DAA1F649F6627B00DA11D661F1E
:102E9000829F2227B00DA11D621F739FB00DA11D3F
:102EA000621F839FA00D611D221F749F3327A00DF9
:102EB000611D231F849F600D211D822F762F6A2F95
:102EC00011249F5750409AF0F1F088234AF0EE0FFA
:102ED000FF1FBB1F661F771F881F91505040A9F727
:102EE0009E3F510580F00C94C7160C9412175F3F5B
:102EF000E4F3983ED4F3869577956795B795F79563
:102F0000E7959F5FC1F7FE2B880F911D96958795DA
:102F100097F908950E94A316880B990B0895DB0179
:102F20008F939F930E940318BF91AF91A29F800D32
:102F3000911DA39F900DB29F900D1124089597FBB2
:102F4000072E16F4009407D077FD09D00E941618BA
:102F500007FC05D03EF4909581959F4F089570959C
:102F600061957F4F0895A1E21A2EAA1BBB1BFD019C
:102F70000DC0AA1FBB1FEE1FFF1FA217B307E40758
:102F8000F50720F0A21BB30BE40BF50B661F771FB0
:102F9000881F991F1A9469F7609570958095909590
:102FA0009B01AC01BD01CF010895052E97FB1EF4D6
:102FB00000940E94EC1757FD07D00E94B31707FC3E
:102FC00003D04EF40C94EC17509540953095219514
:102FD0003F4F4F4F5F4F0895909580957095619545
:102FE0007F4F8F4F9F4F0895A29FB001B39FC001A5
:102FF000A39F700D811D1124911DB29F700D811D25
:103000001124911D08950E94F417A59F900DB49F5F
:10301000900DA49F800D911D11240895B7FF0C946D
:1030200003180E940318821B930B0895AA1BBB1B55
:1030300051E107C0AA1FBB1FA617B70710F0A61BB8
:10304000B70B881F991F5A95A9F780959095BC01D9
:10305000CD010895EE0FFF1F0590F491E02D099426
:1030600081E090E0F8940C94351810E0C2E6D0E0CE
:1030700004C0FE010E942A182196C336D107C9F761
:04308000F894FFCFF2
:10308400FFFFFFFF6009C01280254038004B009607
:10309400C0DA00E111E5728A00000000830D4A0ED7
:1030A4006A0DD00DAF008D00A100000000002802C1
:1030B4001D023A025401160213021002000000001D
:1030C40055014A0E3A025401A501BD013C0100001C
:1030D4000000EC063902D406D206D206434F322051
:1030E4003A200070706D0054564F43203A2000502F
:1030F40072657373757265203A20005061007465BF
:103104006D703A000D0A0068756D693A00555620D5
:103114003A20004C75783A2000206C7578004E6F88
:1031240077207468652052533438352062617564A1
:1031340020726174652069733A200053656E736F61
:1031440072204D4158343430303920666F756E64C6
:10315400004C696768742053656E736F72206D69E3
:103164007373696E6700496E707574202753272C3A
:10317400207072696E742073656E736F722064615F
:1031840074612E2E2E004352433136204552524F45
:103194005220212121203C526563656976655F4D8B
:1031A4006F644275735F436D645F616E645F506109
:1031B4007273653E00536C61766520494420455224
:1031C400524F5220212121203C53656E645F4D6F84
:1031D400644275733E005265636569766564207365
:1031E4006C617665204944206973203A2000436865
:1031F400616E676520736C61766520494420535580
:1032040043434553532E2E2E004E657720736C6135
:103214007665204944206973203A2000526563652D
:103224006976656420626175642072617465204505
:1032340052524F5220212121203C4D6F64696679FE
:103244005F42617564526174653E00496E707574C5
:10325400204552524F522C20706C65617365206971
:103264006E70757420275327006E616E00696E6658
:06327400006F7666000009
:107E0000112484B714BE81FFF0D085E080938100F7
:107E100082E08093C00088E18093C10086E0809377
:107E2000C20080E18093C4008EE0C9D0259A86E02C
:107E300020E33CEF91E0309385002093840096BBD3
:107E4000B09BFECF1D9AA8958150A9F7CC24DD24C4
:107E500088248394B5E0AB2EA1E19A2EF3E0BF2EE7
:107E6000A2D0813461F49FD0082FAFD0023811F036
:107E7000013811F484E001C083E08DD089C08234E0
:107E800011F484E103C0853419F485E0A6D080C0E4
:107E9000853579F488D0E82EFF2485D0082F10E0AE
:107EA000102F00270E291F29000F111F8ED06801E7
:107EB0006FC0863521F484E090D080E0DECF843638
:107EC00009F040C070D06FD0082F6DD080E0C81688
:107ED00080E7D80618F4F601B7BEE895C0E0D1E017
:107EE00062D089930C17E1F7F0E0CF16F0E7DF06D8
:107EF00018F0F601B7BEE89568D007B600FCFDCFD4
:107F0000A601A0E0B1E02C9130E011968C91119780
:107F100090E0982F8827822B932B1296FA010C0160
:107F200087BEE89511244E5F5F4FF1E0A038BF0790
:107F300051F7F601A7BEE89507B600FCFDCF97BE46
:107F4000E89526C08437B1F42ED02DD0F82E2BD052
:107F50003CD0F601EF2C8F010F5F1F4F84911BD097
:107F6000EA94F801C1F70894C11CD11CFA94CF0C13
:107F7000D11C0EC0853739F428D08EE10CD085E9AC
:107F80000AD08FE07ACF813511F488E018D01DD067
:107F900080E101D065CF982F8091C00085FFFCCF94
:107FA0009093C60008958091C00087FFFCCF809118
:107FB000C00084FD01C0A8958091C6000895E0E648
:107FC000F0E098E1908380830895EDDF803219F02E
:107FD00088E0F5DFFFCF84E1DECF1F93182FE3DFCA
:107FE0001150E9F7F2DF1F91089580E0E8DFEE27F6
:047FF000FF270994CA
:027FFE00040479
:0400000300007E007B
:00000001FF